:020000040800F2
:10000000D02E0024B1030008935E0008E3580008D6
:10001000915E0008F50700088D6A000800000000E6
:10002000000000000000000000000000975E0008D3
:100030003508000800000000955E0008995E000881
:10004000CB030008CB030008CB030008CB03000858
:10005000CB030008CB030008CB030008CB03000848
:10006000CB030008CB030008CB030008CB03000838
:10007000F907000805080008110800081D08000815
:10008000CB030008CB030008CB030008610800087D
:100090006D080008CB030008CB030008CB03000861
:1000A000CB030008CB030008CB030008CB030008F8
:1000B000CB030008CB0300085D5F0008CB030008FA
:1000C000CB030008CB030008CB030008CB030008D8
:1000D000CB030008816A0008CB030008CB030008AB
:1000E00037080008CB03000800000000CB0300081D
:1000F000CB030008CB030008CB030008CB030008A8
:10010000CB030008CB030008695F0008CB0300089D
:10011000CB03000889620008CB030008CB0300086A
:1001200029080008CB030008CB030008CB03000814
:10013000CB030008CB030008CB030008CB03000867
:1001400000000000000000000000000000000000AF
:10015000CB030008CB030008CB030008CB03000847
:10016000CB030008CB030008CB030008CB03000837
:10017000CB030008CB030008CB03000800000000FD
:10018000CB030008CB030008CB030008CB03000817
:10019000CB030008CB030008CB030008CB03000807
:1001A000CB030008CB030008CB03000800000000CD
:1001B000CB030008CB030008CB030008CB030008E7
:1001C000CB030008CB030008000000000000000083
:1001D0000000000000000000CB0300080000000049
:1001E000000000000000000000000000000000000F
:1001F0000000000000000000CB030008CB03000853
:10020000CB030008CB03000800000000CB0300086C
:10021000CB030008CB030008CB030008CB03000886
:10022000CB03000800000000CB0300080000000022
:10023000CB030008CB03000800000000CB0300083C
:10024000CB030008CB030008CB030008CB03000856
:10025000CB030008CB030008CB030008CB03000846
:10026000CB030008CB030008CB030008CB03000836
:10027000CB030008CB030008CB03000800000000FC
:10028000CB030008CB030008CB030008CB03000816
:1002900000000000CB030008CB03000800000000B2
:1002A00000000000CB030008CB030008CB030008CC
:1002B000756A0008CB030008CB030008CB030008D5
:1002C000CB030008CB030008CB03000800F002F8C2
:1002D00000F05EF80AA090E8000C82448344AAF182
:1002E0000107DA4501D100F053F8AFF2090EBAE880
:1002F0000F0013F0010F18BFFB1A43F0010318475A
:1003000054BE000074BE00000A444FF0000C10F808
:10031000013B13F0070408BF10F8014B1D1108BF83
:1003200010F8015B641E05D010F8016B641E01F823
:10033000016BF9D113F0080F1EBF10F8014BAD1C73
:100340000C1B09D16D1E58BF01F801CBFAD505E091
:1003500014F8016B01F8016B6D1EF9D59142D6D3EB
:10036000704700000023002400250026103A28BF13
:1003700078C1FBD8520728BF30C148BF0B60704717
:100380001FB50BF04EF900F04BF91FBD10B510BDB5
:1003900000F06CF91146FFF7F3FF0BF075F800F071
:1003A0008AF903B4FFF7F2FF03BC00F08DF90000F7
:1003B0000948804709480047FEE7FEE7FEE7FEE7F9
:1003C000FEE7FEE7FEE7FEE7FEE7FEE70448054935
:1003D000054A064B704700009D5E0008CD020008EC
:1003E000D0280024D02E0024D02A0024D02A002493
:1003F00053EA020C00F069802DE9F04B4FF0000643
:10040000002B1FBFB3FA83F503FA05F424FA05F6AF
:100410005E4012BF1643B2FA82F502FA05F4C5F146
:1004200020051EBF22FA05FC44EA0C04203556EADA
:10043000044C4FEA144418BF641C4FF000084FF0FE
:100440000009904271EB030C39D3002919BFB1FAAE
:1004500081F701FA07F6B0FA80F700FA07F6C7F15C
:1004600020071EBF20FA07FC46EA0C062037B6FB21
:10047000F4FCA7EB0507103F07F01F0BCBF120069C
:100480000CFA0BFB2CFA06F644BFB3460026202FCD
:10049000A4BF5E464FF0000B5BEA060C08BF4FF0AE
:1004A000010B19EB0B09ABFB027C48EB0608C01BE8
:1004B00006FB02CC0BFB03CC71EB0C01C1E70B4636
:1004C000024641464846BDE8F08B13B54FF00000A8
:1004D0004FF00001AFF30080BDE81C407047032AD5
:1004E00040F2308010F0030C00F0158011F8013B51
:1004F000BCF1020F624498BF11F801CB00F8013B38
:1005000038BF11F8013BA2F1040298BF00F801CBFB
:1005100038BF00F8013B11F0030300F02580083AD2
:10052000C0F0088051F8043B083A51F804CBA0E829
:100530000810F5E7121D5CBF51F8043B40F8043B7E
:10054000AFF30080D20724BF11F8013B11F801CBB3
:1005500048BF11F8012B24BF00F8013B00F801CB84
:1005600048BF00F8012B704710B5203AC0F00B804F
:10057000B1E81850203AA0E81850B1E81850A0E8A7
:100580001850BFF4F5AF5FEA027C24BFB1E8185001
:10059000A0E8185044BF18C918C0BDE810405FEA71
:1005A000827C24BF51F8043B40F8043B08BF7047ED
:1005B000D20728BF31F8023B48BF11F8012B28BFF2
:1005C00020F8023B48BF00F8012B70474FF00002B3
:1005D00000B5134694469646203922BFA0E80C5039
:1005E000A0E80C50B1F12001BFF4F7AF090728BF14
:1005F000A0E80C5048BF0CC05DF804EB890028BF90
:1006000040F8042B08BF704748BF20F8022B11F0B8
:10061000804F18BF00F8012B704770477047704734
:1006200070B5064C7C44064D7D4403E020682044B0
:100630008047241DAC42F9D170BD00004CBB0000C6
:100640004CBB000010B500F009F8006810BD10B5F3
:10065000044600F003F8046010BD00000048704735
:100660007028002400487047702800247546FFF762
:10067000F9FFAE4605006946534620F0070085465F
:1006800018B020B5FFF7A2FEBDE820404FF00006ED
:100690004FF000074FF000084FF0000B21F007016A
:1006A000AC46ACE8C009ACE8C009ACE8C009ACE8AD
:1006B000C0098D46704710B50446AFF30080204650
:1006C000BDE81040FFF76DBE01491820ABBEFEE744
:1006D00026000200704700009FED201AB5EE002AA8
:1006E00000EE012A9FED1E1ABDEEC20AB5EEC02A29
:1006F000F1EE10FA10EE100AB8BF013800EE100A41
:100700000020B8EEC00A32EE400A9FED162A20EE15
:10071000010ABDEEC01A11EE101A30EE021AB0EB4B
:10072000512F18BF002102EE101A4BF6501000FE98
:10073000010AC0F60000B8EE422A00EB810090EDFD
:10074000011A30EE420AB7EE002A32EE402A20EEBD
:10075000010A90ED001A02EE010A704783F9223E69
:1007600000000044000000C49FED1F1A20EE010AA3
:100770009FED1F2ABDEEC01AB5EEC00AF1EE10FAC9
:1007800011EE100AB8BF013801EE100A0020B8EED1
:10079000C11A30EE410A9FED151A20EE010ABDEE96
:1007A000C01A11EE101A30EE021AB0EB512F18BF1A
:1007B000002102EE101A4BF6501000FE010AC0F69E
:1007C0000000B8EE422A00EB810090ED011A30EEF5
:1007D000420AB7EE002A32EE402A20EE010A90EDDE
:1007E000001A02EE010A704783F9223E000000441D
:1007F000000000C4FEE70000014800F053BB000009
:1008000070070024014800F04DBB0000E8070024F9
:10081000014800F047BB000060080024014800F0D8
:1008200041BB0000D8080024014800F03BBB000099
:10083000F8060024704710B54FF4806002F0A8F865
:100840004FF4006002F0A4F84FF4805002F0A0F8DA
:10085000BDE810404FF4804002F09AB872B6FEE74F
:10086000014801F00FBC00002C020024014801F0F7
:1008700009BC0000CC0200242DE9F84F044602F028
:10088000ABF900905CB194F83500022809D08020C3
:100890006065002084F834000120BDE8F88F012055
:1008A000FBE7D14ED04FD0491836DFF83C833037C4
:1008B000DFF83493DFF830A308F14808DFF828B3F5
:1008C00009F1600920680AF1780A0BF1900B88425F
:1008D0002ED0B0422CD0B8422AD0404528D048452E
:1008E00026D0504524D0584522D0BF4AA832904245
:1008F0001ED0BE4A90421BD0BC4A1832904217D03C
:10090000BA4A3032904213D0B84A483290420FD09F
:10091000B64A603290420BD0B44A7832904207D047
:10092000B24A9032904203D0B04AA83290420AD1E3
:10093000026822F01E0202602068426922F08002F2
:100940004261256804E0026822F00E020260256818
:10095000206888424DD0B0424BD0B84249D0404583
:1009600047D0484545D0504543D0584541D09E4A90
:10097000A83290423DD09D4A90423AD09B4A1832CC
:10098000904236D0994A3032904232D0974A48321B
:1009900090422ED0954A603290422AD0934A7832C3
:1009A000904226D0914A9032904222D08F4AA8326B
:1009B00090421ED08E4A90421BD08D4A14329042F3
:1009C00017D08B4A2832904213D0894A3C32904249
:1009D0000FD0874A503290420BD0854A6432904201
:1009E00007D0834A7832904203D0814A8C329042B9
:1009F00004D1206E026822F4807202607A49206875
:100A000088422ED0B0422CD0B8422AD0404528D0BF
:100A1000484526D0504524D0584522D07249A831A7
:100A200088421ED0714988421BD0704918318842D3
:100A300017D06E493031884213D06C494831884212
:100A40000FD06A49603188420BD0684978318842BA
:100A500007D066499031884203D06449A831884262
:100A600004D1016821F00101016013E0016821F067
:100A7000010101600EE002F0AFF80099401A05286C
:100A800008D92020343420620320607000202070B8
:100A9000012002E72868C007EDD1534A01212068F0
:100AA00090422ED0B0422CD0B8422AD0404528D017
:100AB000484526D0504524D0584522D04A4BA8332B
:100AC00098421ED0494B98421BD0484B183398424D
:100AD00017D0464B3033984213D0444B483398429A
:100AE0000FD0424B603398420BD0404B7833984242
:100AF00007D03E4B9033984203D03C4BA8339842EA
:100B000008D1A06D94F85C3003F01F053F23AB4083
:100B1000836007E0A06D94F85C3003F01F0301FAD6
:100B200003F34360206890424DD0B0424BD0B842AE
:100B300049D0404547D0484545D0504543D0584519
:100B400041D0294AA83290423DD0284A90423AD01A
:100B5000264A1832904236D0244A3032904232D05F
:100B6000224A483290422ED0204A603290422AD007
:100B70001E4A7832904226D01C4A9032904222D0AF
:100B80001A4AA83290421ED0194A90421BD0184AE5
:100B90001432904217D0164A2832904213D0144A89
:100BA0003C3290420FD0124A503290420BD0104A41
:100BB0006432904207D00E4A7832904203D00C4AF9
:100BC0008C3290420BD1D4E919205060E06E30B1E4
:100BD000026822F480720260D4E91C205060343430
:100BE00061700020207058E610000240100402409E
:100BF000085402582DE9F05F002808D090F835100D
:100C0000022906D0802141650120BDE8F09F012026
:100C1000FBE7A14AA04BA04C18329F4D30339E4EAB
:100C20004834DFF874B26035DFF870C27836DFF828
:100C30006C82DFF868920CF1300CDFF860A208F1EA
:100C40006008016809F17809944F0AF1900A594542
:100C500031D091422FD099422DD0A1422BD0A94220
:100C600029D0B14227D0DFF830E20EF1900E714565
:100C700021D0DFF824E20EF1A80E71451BD0DFF879
:100C80001CE2AEF1180E714515D0B94213D0DFF851
:100C90000CE20EF1180E71450DD061450BD0DFF856
:100CA000FCE10EF1480E714505D0414503D04945A0
:100CB00001D0514537D14FF0040E80F835E0594549
:100CC00027D0914225D0994223D0A14221D0A942D8
:100CD0001FD0B1421DD070489030814219D06E486B
:100CE000A830814215D06D481838814211D0B942E0
:100CF0000FD06A48183081420BD0614509D067484F
:100D00004830814205D0414503D0494501D0514585
:100D100004D1086820F001000860BAE0086820F0FB
:100D200001000860B5E0D1F800E02EF00E0EC1F829
:100D300000E00168DE46594531D091422FD09942FA
:100D40002DD0A1422BD0A94229D0B14227D0DFF823
:100D500048B10BF1900B594521D0DFF83CB10BF1B4
:100D6000A80B59451BD0DFF834B1ABF1180B59452E
:100D700015D0B94213D0DFF824B10BF1180B594547
:100D80000DD061450BD0DFF814B10BF1480B59457C
:100D900005D0414503D0494501D0514506D1D1F890
:100DA00000B02BF0010BC1F800B005E0D1F800B0A5
:100DB0002BF0010BC1F800B001684FF0010B714539
:100DC00046D0914244D0994242D0A14240D0A9425B
:100DD0003ED0B1423CD0304A9032914238D02E4A77
:100DE000A832914234D02D4A183A914230D0B942BB
:100DF0002ED02A4A183291422AD0614528D0274A5B
:100E00004832914224D0414522D0494520D0514515
:100E10001ED0234A91421BD0214A1432914217D04E
:100E20001F4A2832914213D01D4A3C3291420FD0C2
:100E30001B4A503291420BD0194A6432914207D07A
:100E4000174A7832914203D0154A8C32914218D118
:100E5000016E0A6822F480720A60816D90F85C204D
:100E600002F01F020BFA02F24A60D0E91921516028
:100E7000C16E31B10A6822F480720A60D0E91C2187
:100E8000516080F835B0002180F83410016D01B157
:100E900088470020B9E60000100002402804024004
:100EA000085402582DE9FF5F0446002001904FF4DA
:100EB0001651FD480068B0FBF1F00090A56D2E685A
:100EC0002968FA4FDFF8E4B3DFF8E083DFF8DC935A
:100ED0000BF1180BDFF8D4A308F13008206809F1F2
:100EE00048090AF1600AB8423BD05A46904238D0CD
:100EF000404536D0484534D0504532D0EB4A783260
:100F000090422ED0E94A903290422AD0E74AA83245
:100F1000904226D0E64A904223D0E54A18329042C9
:100F20001FD0E34B303398421BD0E14B48339842FB
:100F300017D0DFF87CC30CF1600C604511D0DFF8EE
:100F400070C30CF1780C60450BD0DFF864C30CF172
:100F5000900C604505D0DFF858E30EF1A80E7045FF
:100F60007ED194F85C10082301F01F0103FA01F20E
:100F700032424BD0B84232D0584530D040452ED0C6
:100F800048452CD050452AD0C8497831884226D0CF
:100F9000C6499031884222D0C449A83188421ED027
:100FA000C34988421BD0C2491831884217D0C04972
:100FB0003031884213D0BE49483188420FD0BC49F5
:100FC000603188420BD0BA497831884207D0B8499D
:100FD0009031884203D0B649A831884203D10168D4
:100FE00001F0040102E0016801F0080171B101683B
:100FF00021F00401016094F85C0000F01F0003FA86
:1010000000F2AA60606D40F00100606594F85C0039
:10101000012100F01F008140314240D02068B842D9
:1010200034D0584532D0404530D048452ED0504578
:101030002CD09E4A7832904228D09C4A90329042DE
:1010400024D09A4AA832904220D0994A90421DD08A
:10105000974A1832904219D0954A3032904200E0B7
:10106000D2E113D0924A483290420FD0904A603277
:1010700090420BD08E4A7832904207D08C4A903200
:10108000904203D08A4AA83290427DD1406910F044
:10109000800F04D0A960606D40F00200606594F894
:1010A0005C00042100F01F00814031423ED02068E6
:1010B000B84232D0584530D040452ED048452CD08B
:1010C00050452AD0794A7832904226D0774A9032D9
:1010D000904222D0754AA83290421ED0744A904263
:1010E0001BD0734A1832904217D0714A3032904266
:1010F00013D06F4A483290420FD06D4A603290420E
:101100000BD06B4A7832904207D0694A90329042B5
:1011100003D0674AA83290424ED1006810F0020F07
:1011200004D0A960606D40F00400606594F85C0034
:10113000102100F01F008140314260D02068B84289
:1011400034D0584532D0404530D048452ED0504557
:101150002CD0564A7832904228D0544A903290424D
:1011600024D0524AA832904220D0514A90421DD0F9
:101170004F4A1832904219D04D4A3032904215D021
:101180004B4A4832904200E014E00FD0484A6032A7
:1011900090420BD0464A7832904207D0444A90326F
:1011A000904203D0424AA832904207D1006800F032
:1011B000080006E0006872E70068B7E7006800F022
:1011C000040058B1A9602068016849030CD5006883
:1011D000000304D4216C09B1204688470FE0A16CBC
:1011E00069B1204688470AE00168C90503D401684F
:1011F00021F008010160216C09B12046884794F86C
:101200005C00202100F01F00814031427BD020682B
:10121000B84232D0584530D040452ED048452CD029
:1012200050452AD0214A7832904226D01F4A903227
:10123000904222D01D4AA83290421ED01C4A9042B1
:101240001BD01B4A1832904217D0194A30329042B4
:1012500013D0174A483290420FD0154A603290425C
:101260000BD0134A7832904207D0114A9032904204
:1012700003D00F4AA832904203D1006800F010005A
:1012800002E0006800F00200E8B3A96094F83500BD
:10129000042812D02068016849033DD50068000386
:1012A00035D4616C79B305E01000002410000240D1
:1012B00010040240204688473FE02068016821F082
:1012C000160101602068416921F080014161206CB4
:1012D00008B9A06C20B12068016821F00801016004
:1012E00094F85C0000F01F013F208840A8600120B6
:1012F00084F83500002084F83400216D002974D072
:1013000004B0204600E018E0BDE8F05F0847E16B5C
:1013100099B12046884710E00168C90509D40168E1
:1013200021F010010160012084F83500002084F8CC
:101330003400E16B09B120468847606D002854D025
:10134000606DC00758D0042084F835002068B8428A
:1013500031D058452FD040452DD048452BD0504551
:1013600029D0B749884226D0B5491831884222D0C1
:10137000B349303188421ED0B24988421BD0B149AE
:101380001831884217D0AF493031884213D0AD4967
:10139000483188420FD0AB49603188420BD0A9490F
:1013A0007831884207D0A7499031884203D0A549B7
:1013B000A831884204D1016821F00101016003E0F5
:1013C000016821F00101016021680198009A401C28
:1013D0000190904202D80868C007F6D10868C0079B
:1013E00004D0032084F8350003E087E0012084F86E
:1013F0003500002084F83400E16C00297ED004B070
:101400002046BDE8F05F08478F4EB0421BD08E4E9D
:101410001436B04217D08C4E2836B04213D08A4EC4
:101420003C36B0420FD0884E5036B0420BD0864E7C
:101430006436B04207D0844E7836B04203D0824E34
:101440008C36B0425AD106684FF0040E94F85CB066
:101450000BF01F0B0EFA0BFE1EEA010FCDF80CE08D
:101460005ED05FEA467E5BD503986860300411D594
:10147000F00307D4A16C002940D004B02046BDE899
:10148000F05F0847216C002938D004B02046BDE841
:10149000F05F0847B0063BD42068B8422DD06849B9
:1014A0006039884229D0404527D0484525D050454D
:1014B00023D06349884220D06149183188421CD02A
:1014C0005F493031884218D05E49884215D0904239
:1014D00013D05C49303188420FD098420DD0594921
:1014E0006031884209D057497831884205D060453B
:1014F00003D05449A831884206D100E07CE001685D
:1015000021F00801016003E0016821F0040101609D
:10151000216C002970D004B02046BDE8F05F084778
:101520004FF0020E0EFA0BFE1EEA010FCDF808E096
:1015300063D05FEA867E60D502986860300411D57A
:10154000F00307D4616C002978D004B02046BDE8D0
:10155000F05F0847E16B002970D004B02046BDE879
:10156000F05F0847B0063FD42068B8422DD0344918
:101570006039884229D0404527D0484525D050457C
:1015800023D02F49884220D02D49183188421CD0C1
:101590002B493031884218D02A49884215D09042D0
:1015A00013D02849303188420FD098420DD02549B8
:1015B0006031884209D023497831884205D060459E
:1015C00003D02049A831884204D1016821F01401D8
:1015D000016003E0016821F00A010160012084F844
:1015E0003500002084F83400E16B002926D004B0D7
:1015F0002046BDE8F05F084720E0082202FA0BF21F
:101600000A421BD0310719D5016821F00E01016093
:1016100094F85C0000F01F01012000FA01F16960FC
:10162000606584F83500002084F83400E16C0029FE
:1016300004D004B02046BDE8F05F0847BDE8FF9F36
:101640008800024010040240085402582DE9F05F5F
:10165000044601F0C1FA0646002C7DD0F24F02226A
:10166000DFF8C4830025DFF8C093DFF8BCA308F1DE
:101670003008DFF8B4B309F1480920680AF1600ABC
:101680000BF1780BB84232D0E749183188422ED09E
:1016900040452CD048452AD0504528D0584526D022
:1016A000E1499031884222D0DF49A83188421ED0DA
:1016B000DE4988421BD0DD491831884217D0DB490A
:1016C0003031884213D0D949483188420FD0D749A8
:1016D000603188420BD0D5497831884207D0D34950
:1016E0009031884203D0D149A83188427ED184F814
:1016F000352084F83450B84234D0CB491831884270
:1017000030D040452ED048452CD050452AD05845A1
:1017100028D0C5499031884224D0C349A831884295
:1017200020D0C24988421DD0C0491831884219D002
:10173000BE493031884215D0BC494831884211D069
:10174000BA49603188420DD0B8497831884209D011
:10175000B6499031884200E009E003D0B349A8318E
:10176000884207D1016821F00101016013E00120E6
:10177000BDE8F09F016821F0010101600BE001F07C
:101780002BFA801B052806D920206065032084F8E9
:1017900035000120ECE720680068C007EFD122681F
:1017A0001168A3480140D4E902031843D4E9043680
:1017B00033431843A3691843E3691843236A184362
:1017C0000843616A042903D1D4E90B131943084380
:1017D0006168A1F12903052B0DD9163B032B0AD90A
:1017E000083B012B07D9083B032B00E02AE002D974
:1017F0007439032901D840F48010106020684069D2
:1018000020F00701606A40EA010604280DD1A06AB1
:101810000643E06A48B1204608F07AF928B1402032
:101820006065012084F83500A2E720684661204603
:1018300008F0AAF994F85C1001F01F023F219140D2
:10184000816066E07B4988421BD07A4B1433984212
:1018500017D0784B2833984213D0764B3C339842BC
:101860000FD0744B503398420BD0724B6433984274
:1018700007D0704B7833984203D06E4B8C3398422C
:101880007ED1884211D06B49143188420DD069490C
:101890002831884209D067493C31884205D06549E2
:1018A0005031884201D06349643184F8352084F88E
:1018B0003450026860490A40A16840297ED08029DE
:1018C0007DD00021E36841EAD301236941EAD301D5
:1018D000636941EAD301A36941EAD301E36941EABB
:1018E000D301236A41EA1311114301605149206871
:1018F000494208441421B0FBF1F08000E065204625
:1019000008F042F994F85C1001F01F0201219140A7
:1019100041602068B84256D043491831884252D0BD
:10192000404550D048454ED050454CD058454AD0FF
:101930003D499031884246D03B49A831884242D047
:101940003A4988423FD03949183188423BD037491B
:101950003031884237D035494831884233D0334915
:10196000603188422FD03149783188422BD02F49BD
:101970009031884227D02D49A831884223D000E0F9
:101980002DE02C4988421ED02A49143188421AD0B1
:1019900028492831884216D026493C31884212D045
:1019A0002449503188420ED02249643188420AD0FD
:1019B00020497831884206D01E4901E00AE00BE058
:1019C0008C31884229D1204608F03EF9A068802851
:1019D0000CD00CE0102175E74FF4804172E74020F5
:1019E0006065032084F835000120C1E66560216E42
:1019F00020790860D4E9191048606068401E072803
:101A000008D8204608F070F9E06E0560D4E91C1093
:101A1000486002E0E566256765676565012084F832
:101A200035000020A4E6000010000240100402402F
:101A30003F8010FE085402580F00FEFF2DE9F84FBA
:101A4000044600200090002C15D094F834000128A2
:101A500013D0012084F8340094F835500020012D73
:101A60000DD04FF40061616584F8340001200090CE
:101A70000098BDE8F88F0120FBE70220F9E7022576
:101A800084F835506065A54DA44EA44F1835DFF895
:101A90008CC23036DFF884824837DFF88092DFF876
:101AA0007CA208F16008DFF874B209F178092068B7
:101AB0000AF1900A0BF1A80B60453BD0A84239D03F
:101AC000B04237D0B84235D0404533D0484531D008
:101AD00050452FD058452DD0DFF844C2604529D05D
:101AE000DFF83CC20CF1180C604523D0DFF830C29F
:101AF0000CF1300C60451DD0DFF824C20CF1480C0D
:101B0000604517D0DFF818C20CF1600C604511D0A9
:101B1000DFF80CC20CF1780C60450BD0DFF800C286
:101B20000CF1900C604505D0DFF8F4C10CF1A80C65
:101B3000604506D1D0F800C02CF0010CC0F800C000
:101B400005E0D0F800C02CF0010CC0F800C0204621
:101B500007F0C0FE7149206888422CD0A8422AD0E4
:101B6000B04228D0B84226D0404524D0484522D0A3
:101B7000504520D058451ED0694A90421BD0684A33
:101B80001832904217D0664A3032904213D0644ADD
:101B9000483290420FD0624A603290420BD0604A85
:101BA0007832904207D05E4A9032904203D05C4A2D
:101BB000A83290420DD1026822F01E0242F01602B5
:101BC0000260206C90B12068026842F00802026056
:101BD0000CE0026822F00E0242F00A020260206C61
:101BE00020B12068026842F0040202602068884246
:101BF0004BD0A84249D0B04247D0B84245D040452A
:101C000043D0484541D050453FD058453DD0444A47
:101C100090423AD0424A1832904236D0404A30324E
:101C2000904232D03E4A483290422ED03C4A6032F6
:101C300090422AD03A4A7832904226D0384A90329E
:101C4000904222D0364AA83290421ED0354A904265
:101C50001BD0344A1432904217D0324A2832904274
:101C600013D0304A3C3290420FD02E4A503290422C
:101C70000BD02C4A6432904207D02A4A78329042E4
:101C800003D0284A8C3290420DD1206E0268D203D4
:101C900003D5026842F480720260E06E18B10268F7
:101CA00042F480720260206888422CD0A8422AD078
:101CB000B04228D0B84226D0404524D0484522D052
:101CC000504520D058451ED0154988421BD0144994
:101CD0001831884217D012493031884213D0104948
:101CE000483188420FD00E49603188420BD00C49F0
:101CF0007831884207D00A499031884203D0084998
:101D0000A831884204D1016841F001010160AFE6C9
:101D1000016841F001010160AAE6000010000240E4
:101D2000100402400854025810B590F89830012B66
:101D300008D0022B06D050F89C1F41F00201016030
:101D4000012010BD03689C6D0C4204D1DC6D44F091
:101D50000104DC6505E09C6D31EA04041CD0032419
:101D6000DC658B0504D5036853F8E04F14431C6011
:101D70004B0504D5036853F8E44F14431C60006816
:101D8000426D084B0B401A4342650748026842EA1D
:101D900091710160002010BDDC6D44F00204DC652F
:101DA000DFE70000FFFFCF3F14A8004070B50446F6
:101DB00094F89800022806D054F89C0F40F00800D0
:101DC0002060012070BD2068D0F8C03013F07C5F27
:101DD0000AD0D0F8C4309B020DD554F89C0F40F4C3
:101DE00000702060012070BD54F89C0F40F020006E
:101DF0002060012070BDD0F8C400C0F30445204627
:101E00002B4608F0F9F921680120A840C1F8D0005C
:101E1000C4F89400002070BD704710B590F8982069
:101E2000012A08D0022A06D050F89C1F41F0020176
:101E30000160012010BDCA680B688BB1072A0B69CD
:101E400043EA42732BD00C7A4A6942EA84724968A9
:101E5000006F00EBC100036042604FF0000010BD56
:101E6000072A10D00C7A4FEAC2624B6943EA8473A6
:101E70000C8A42EA044243EA02034968C06E00EB5E
:101E800081000360E9E70B8A4FF060548A6942EAF7
:101E90000343CA6944EA022243EA0203EDE78A697E
:101EA000D5E730B5039C90F89850012D06D050F836
:101EB0009C1F41F004010160012030BD0068090150
:101EC00041EA820141EA43012143C0F88010002029
:101ED00030BD704770470000F0B5002490F898506E
:101EE000022D06D050F89C1F41F00801016001202E
:101EF000F0BD40290BD0412936D0056D8D4260D808
:101F000050F89C1F41F0200101600120F0BD0568E0
:101F1000D5F8A06016F4FE0F18D0D5F8A4607606A8
:101F20001BD0D5F8A460F60105D5D5F8A06016F051
:101F3000004F00D50124D5F8A450C5F305252C4445
:101F4000456C466F654306EB85063FE050F89C1FE5
:101F500041F0200101600120F0BD50F89C1F41F4C8
:101F6000807101600120F0BD0568D5F8B06016F4FD
:101F7000FE0F18D0D5F8B46076061BD0D5F8B46043
:101F8000F60105D5D5F8B06016F0004F00D5012454
:101F9000D5F8B450C5F305252C44C56C866F654350
:101FA00006EB850612E050F89C1F41F0200101600D
:101FB0000120F0BD50F89C1F41F4807101600120A8
:101FC000F0BD456DC66F4D4306EB8506356805F0DF
:101FD000804555602DB3356825F06045156035683E
:101FE00005F000559560356805F000451561B58828
:101FF000ADB2D5617568C5F30345D560756805F464
:1020000080155561756805F4001595617568C5F30F
:102010000665156275680836ED0F55620025174F85
:1020200009E03568C5F38A451560D8E716F805C09C
:1020300003F805C06D1CD2F80CC017F80CC0AC45F5
:10204000F4D8402909D041290BD0012220290CD2F3
:1020500000688A40C0F898200DE00068C0F8A840E9
:1020600009E00068C0F8B84005E0006801F01F0111
:102070008A40C0F89C200020F0BD000028B700086E
:10208000704700002DE9FE4F0446B64F38688007C0
:10209000391D096800EA817002902068016D01F421
:1020A0007041D0F854A00AEA010A016D01F00F0155
:1020B000D0F854B00BEA010B016D01F0F001426D54
:1020C0000A400192016D01F07151D0F8548008EA84
:1020D0000108016D01F06071426D0A400092416D8E
:1020E000056D4FF00009CE43F10509D4E943C90558
:1020F00006D4B9150165C7F800902046FFF7C0FF68
:10210000700510D4E84340050DD42068D0F8DC20D9
:10211000D0F8E41011404FF480620265C7F80090D7
:10212000204600F0C7FB029858B18F49029808403A
:10213000216808650298800F386002992046FFF7F1
:102140006BFEBAF1000F0BD0216887480AEA000045
:1021500008654FEA9A7038605146204600F0ACFBA3
:10216000BBF1000F0BD021687F480BEA0000086527
:102170004FEA9B7038605946204600F0FDFA0198FE
:1021800058B1794901980840216808650198800F85
:1021900038600199204600F02FFB30050BD4E8434E
:1021A000000508D421684FF400600865C7F8009066
:1021B000204600F082FBB00510D4E84380050DD422
:1021C0002068D0F8D820D0F8E01011404FF4007209
:1021D0000265C7F80090204600F06DFB30030BD479
:1021E000E843000308D421684FF400200865C7F8CD
:1021F0000090204600F0BEFAF0030BD4E843C00381
:1022000008D421684FF480300865C7F80090204654
:1022100000F04FFB70030BD4E843400308D421685F
:102220004FF480200865C7F80090204600F040FB7E
:10223000B0030ED4E84380030BD421684FF4003080
:102240000865C7F80090D4F89C0040F08000C4F8FE
:102250009C00009858B144490098084021680865DE
:102260000098800F386000992046FFF733FEB8F1E0
:10227000000F0DD021683C4808EA000008654FEACD
:1022800098703860D4F89C0040EA0800C4F89C00BC
:102290003649206888425BD160688168890757D0D9
:1022A000016A01F00F02416A1140026A02F0300235
:1022B000476A1740026A02F4C072D0F8248008EA24
:1022C0000208026A02F4FC42456A1540026A02F4FE
:1022D000F022466A1640D0F82490D0F820A019B118
:1022E0000162204600F0E1FA2FB1606807623946CA
:1022F000204600F0DCFA6FEA090040060ED46FEACF
:102300000A0040060AD46068C16B090CC26B02F077
:102310003F0240230362204600F0C8FAB8F1000FE4
:1023200006D06068C0F820804146204600F0BCFA24
:1023300035B160680562D4F89C002843C4F89C005D
:1023400036B160680662D4F89C003043C4F89C0043
:10235000D4F89C00002802D02046FFF7BAFDBDE863
:10236000FE8F000010A80040FFFFCF3F00A00040FC
:102370002DE9F04393B004464C2295496846FEF798
:10238000F3F86CB1934F2068B84202D100F5807029
:1023900060604FF4407994F89800002620B108E07E
:1023A000012013B0BDE8F08384F89960204600F066
:1023B00013F92068816921F01001816100F00CFCA3
:1023C00005464FF003080DE000F006FC401B0A280C
:1023D00008D954F89C0F40F00100206004F8048CE8
:1023E0000120DEE7206880690007EDD4206881695C
:1023F00041F00101816100F0EFFB05460DE000F0C6
:10240000EBFB401B0A2808D954F89C0F40F0010050
:10241000206004F8048C0120C3E720688069C007AD
:10242000EDD02068816941F002018161207C0128A2
:1024300039D02068816941F040018161607C0128C8
:1024400037D02068816921F480418161A07C012816
:1024500035D02068816941F48051816120688169AB
:10246000A26821F44071114381612068816921F0E3
:10247000A40181612068016921F010010161E06817
:10248000012822D030B302282BD02068816941F086
:10249000800181612068016941F010010161E068FB
:1024A000032818D022E02068816921F04001816171
:1024B000C4E72068816941F480418161C6E72068F2
:1024C000816921F480518161C8E72068816941F008
:1024D000040181610AE02068816941F02001816185
:1024E00004E02068816941F020018161207E401E66
:1024F0004106E069401E41EA0020216A491E084366
:10250000A18A491E40EA01402168C861A068484587
:102510000FD1E16AA06A491E401E40EA0121206BEA
:10252000401E41EA0011A08C401E41EA0040216893
:10253000C860206E28B1206850F8C01F626E114339
:102540000160D4E91701C842694609D0206850F8F3
:10255000C82FA36E22F0070251F823301A430260FD
:10256000206C48B1206850F8BC2F636C22F0070241
:1025700051F823301A430260A06C50B1206850F823
:10258000BC2FE36C22F0700251F8233042EA0312B0
:102590000260206D50B1206850F8BC2F636D22F4AA
:1025A000E06251F8231042EA012101602068B8423C
:1025B00004D16068816821F00301816044F8946F60
:1025C000A66001202071943C204607F04FFEE8E60B
:1025D00038B7000800A000402DE9F047B6B0044627
:1025E000142130A8FDF7F2FFB82102A8FDF7EEFF95
:1025F0005B4D0026584A4FF0805021680C3D574FE4
:102600004FF00208564C9142DFF858A14FF00909EB
:1026100036D142130021CDE902211D9002A800F01D
:1026200089FD08B1FEF71AF93868401C38600128A6
:1026300007D1206840F480702060206800F480702A
:102640000190286840F008002860286800F0080021
:10265000019003203090CDF8C48032963396CDF8A7
:10266000D09030A9504600F09FF900221320114667
:1026700000F030FB132000F01FFB36B0BDE8F08700
:10268000394A914235D100214FF40042CDE902216F
:102690001D9002A800F04EFD08B1FEF7DFF8386883
:1026A000401C3860012807D1206840F48070206009
:1026B000206800F480700190286840F002002860D3
:1026C000286800F00200019060203090CDF8C480AE
:1026D00032963396CDF8D09030A9244800F064F9B2
:1026E00000221420114600F0F5FA142000F0E4FA5C
:1026F000C3E71F4A9142C0D100214FF40042CDE907
:1027000002211D9002A800F015FD08B1FEF7A6F801
:102710003868401C3860012807D1206840F4807078
:102720002060206800F480700190286840F0080064
:102730002860286800F0080001904FF44050309065
:10274000CDF8C480329633960520349030A9504697
:1027500000F02AF991E7000000A0004000000024EA
:10276000EC440258000C025800A400400004025837
:1027700000D400407047000010B51B4A0168914228
:102780000DD11A4B4021A3F12C04221DFFF7A4FB0D
:10279000616B002927D0201DBDE810400847144A6E
:1027A00091420ED1114B40213833A3F12C04221D4C
:1027B000FFF792FB616B002915D0201DBDE810408A
:1027C00008470C4A91420ED1084B40217033A3F1C7
:1027D0002C04221DFFF780FB616B002903D0201D14
:1027E000BDE81040084710BD00A000407C0900244F
:1027F00000A4004000D4004010B51B4A016891427B
:102800000DD11A4B4121A3F12C04221DFFF764FBCB
:10281000616B002927D0201DBDE810400847144AED
:1028200091420ED1114B41213833A3F12C04221DCA
:10283000FFF752FB616B002915D0201DBDE8104049
:1028400008470C4A91420ED1084B41217033A3F145
:102850002C04221DFFF740FB616B002903D0201DD3
:10286000BDE81040084710BD00A000407C090024CE
:1028700000A4004000D4004090F89810012906D030
:1028800050F89C1F41F004010160012070470221B3
:1028900080F8981001688A6922F001028A6100219B
:1028A000C0F89C1000207047704770477047704711
:1028B000704770477047704770477047012828D0AD
:1028C00002282AD004282CD008282ED0102830D056
:1028D000202832D0402834D0802836D0B0F5807FF0
:1028E00037D0B0F5007F38D0B0F5806F39D0B0F573
:1028F000006F3AD0B0F5805F3BD0B0F5005F3CD0C0
:10290000B0F5804F3DD0B0F5004F3ED11F48406834
:1029100000471E487838406800471C4870384068B7
:1029200000471A48683840680047184860384068CF
:1029300000471648583840680047144850384068E7
:1029400000471248483840680047104840384068FF
:1029500000470E483838406800470C483038406817
:1029600000470A482838406800470848203840682F
:102970000047064818384068004704481038406847
:102980000047024808384068004770478801002423
:1029900010B54FF0B041D1F88820024203D0C1F801
:1029A0008800FFF78BFF10BD2DE9F84F0022784D0E
:1029B00003264FF001080F274FF0B04CE1E008FA72
:1029C00002F31C409A46002C7ED00B7903F00303DF
:1029D000012B01D0022B1BD1D0F80890530006FA2E
:1029E00003FB29EA0B09D1F80CB00BFA03FB4BEA05
:1029F000090BC0F808B0436823EA0A0391F8049071
:102A0000C9F3001909FA02F949EA0309C0F8049068
:102A10000B79DB439B070ED0D0F80C90530006FADD
:102A200003FA29EA0A09D1F808A00AFA03FA4AEADD
:102A3000090AC0F80CA00B7903F00303022B14D190
:102A4000D30800EB8303D3F820A04FEA42794FEA82
:102A5000D96907FA09FB2AEA0B0AD1F810B00BFA78
:102A600009FB4BEA0A0BC3F820B0D0F800905300E2
:102A700006FA03FA29EA0A0991F804A00AF0030AFF
:102A80000AFA03FA4AEA090AC0F800A04B6813F4EC
:102A9000403F75D03F4BD3F8009049F00209C3F88E
:102AA00000901B6803F00203009322F0030909F170
:102AB000B049D9F808B493074FEA137A07FA0AF332
:102AC0002BEA030B344B00E05AE0984201D100237B
:102AD00028E0324B984201D1012323E0304B984249
:102AE00001D102231EE02F4B984201D1032319E0AC
:102AF0002D4B984201D1042314E02C4B984201D174
:102B000005230FE02A4B984201D106230AE0294B06
:102B1000984201D1072305E0274B984201D10923B0
:102B200000E00A2303FA0AF343EA0B03C9F8083466
:102B3000DCF80030A343D1F804905FEAC92900D53E
:102B40002343CCF80030DCF80430A343D1F80490E0
:102B50005FEA892900D52343CCF804306B68A3438E
:102B6000D1F804905FEA893900D523436B602B6864
:102B7000A343D1F804905FEAC93900D523432B6001
:102B8000521C0C6834FA02F37FF419AFBDE8F88FD9
:102B900080000058F4440258000002580004025813
:102BA00000080258000C0258001002580014025885
:102BB00000180258001C02580024025800690842FC
:102BC00001D00120704700207047002A01D08161A8
:102BD00070470904816170470148806870470000B0
:102BE0000400002402488168027811448160704723
:102BF0000400002410B5032000F08CF801F0E6F882
:102C00000F490A68C2F303230E4AD35C03F01F0383
:102C1000D840096801F00F01515C0B4A01F01F0117
:102C200020FA01F11160094908600F2000F010F846
:102C300008B1012010BD00F031F8002010BD0000E7
:102C400018440258ACB700081400002410000024F7
:102C500070B504460F4D2A78002A0CD04FF47A70D4
:102C60000D49B0FBF2F00968B1FBF0F001F074FC23
:102C700018B1012070BD012070BD102C07D20022B8
:102C80002146501E00F026F86C60002070BD012027
:102C900070BD0000040000241000002408B50548A1
:102CA000016841F002010160006800F0020000903C
:102CB00008BD0000F4440258002809DB012100F09F
:102CC0001F0291404009800000F1E020C0F800118F
:102CD00070470000F0B40D460D4B1B68C3F3022390
:102CE000C3F10704042C00D90424191D072901D2BB
:102CF000002300E0DB1E012606FA04F1491E2940EC
:102D000099409E40761E16403143F0BC07F086BBCA
:102D10000CED00E000F00701054A10684FF6FF03D4
:102D2000184040EA01200349084310607047000042
:102D30000CED00E00000FA0570B514490A68D243B2
:102D4000520708D5096801F00701814201D001202E
:102D500070BD002070BD0A6822F0070202430A60BD
:102D6000FFF73AFF0446094D4FF47A76083D06E036
:102D7000FFF732FF001BB04201D9012070BD286867
:102D8000C0438004F4D4002070BD00000C480258F9
:102D900010B500F0D5FF05490968054AC1F30211D5
:102DA000515C01F01F01C84010BD000020440258D2
:102DB000ACB7000810B569490A6802F00302096857
:102DC000C1F30531654B1B1D1B68C3F30013634C36
:102DD00014342468C4F3CC0414FB03F300EE103A5B
:102DE000B8EE400A002971D09FED5D1A5B4BF7EEFB
:102DF000000A1033F2B39FED5B2A012A7FD0022A2A
:102E00007CD001EE901A1968F8EE611AC2EE212A00
:102E1000C1F3080101EE901AF8EE611A40EE011AB2
:102E200031EEA00A22EE800A1968C1F3462101EEB4
:102E3000101AB8EE411A31EE201AC0EE011ABCEE9B
:102E4000E11A80ED001A1968C1F3064101EE101A6B
:102E5000B8EE411A31EE201AC0EE011ABCEEE11AAA
:102E600080ED011A1968C1F3066101EE101AB8EE7F
:102E7000411A00E008E071EE200A80EE201ABCEE54
:102E8000C10A80ED020A10BD344A283A1468A4062B
:102E90001ED51268C2F3C104334AE24001EE902A03
:102EA000F8EE612A01EE901A1968F8EE611A82EEC6
:102EB000A12AC1F3080101EE901AF8EE611A40EE62
:102EC000011A31EEA00A22EE000AADE741E016E059
:102ED00001EE901ADFED252A1968F8EE611A82EEEC
:102EE000A12AC1F3080101EE901AF8EE611A40EE32
:102EF000011A31EEA00A22EE000A95E713E001EE76
:102F0000901A1968F8EE611AC2EE212AC1F308017D
:102F100001EE901AF8EE611A40EE011A31EEA00AA5
:102F200022EE800A80E701EE901ADFED112A19687F
:102F3000F8EE611A82EEA12AC1F3080101EE901A9F
:102F4000F8EE611A40EE011A31EEA00A22EE000AF4
:102F50006AE7002101604160816010BD2844025889
:102F6000000000390024744A0090D0030024744CFF
:102F7000001BB74B10B569490A6802F003020968E3
:102F8000C1F30551654B1B1D1B68C3F30023634C44
:102F90001C342468C4F3CC0414FB03F300EE103A91
:102FA000B8EE400A002971D09FED5D1A5B4BF7EE39
:102FB000000A1833F2B39FED5B2A012A7FD0022A60
:102FC0007CD001EE901A1968F8EE611AC2EE212A3F
:102FD000C1F3080101EE901AF8EE611A40EE011AF1
:102FE00031EEA00A22EE800A1968C1F3462101EEF3
:102FF000101AB8EE411A31EE201AC0EE011ABCEEDA
:10300000E11A80ED001A1968C1F3064101EE101AA9
:10301000B8EE411A31EE201AC0EE011ABCEEE11AE8
:1030200080ED011A1968C1F3066101EE101AB8EEBD
:10303000411A00E008E071EE200A80EE201ABCEE92
:10304000C10A80ED020A10BD344A283A1468A40669
:103050001ED51268C2F3C104334AE24001EE902A41
:10306000F8EE612A01EE901A1968F8EE611A82EE04
:10307000A12AC1F3080101EE901AF8EE611A40EEA0
:10308000011A31EEA00A22EE000AADE741E016E097
:1030900001EE901ADFED252A1968F8EE611A82EE2A
:1030A000A12AC1F3080101EE901AF8EE611A40EE70
:1030B000011A31EEA00A22EE000A95E713E001EEB4
:1030C000901A1968F8EE611AC2EE212AC1F30801BC
:1030D00001EE901AF8EE611A40EE011A31EEA00AE4
:1030E00022EE800A80E701EE901ADFED112A1968BE
:1030F000F8EE611A82EEA12AC1F3080101EE901ADE
:10310000F8EE611A40EE011A31EEA00A22EE000A32
:103110006AE7002101604160816010BD28440258C7
:10312000000000390024744A0090D0030024744C3D
:10313000001BB74B2DE9FC5F044600250026F94F24
:103140002068DFF8E493C043010104F10800019016
:1031500004F1280000900DD4606EB8B1B0F5801F66
:1031600019D0B0F5001F1CD0B0F5401F00D00125CC
:10317000EDB12E462088C043C00535D4A06D05288A
:103180002FD2DFE800F01D22282F2F00386840F4EE
:1031900000303860ECE70198022107F04FF905464E
:1031A000E6E70098022107F0DBF90546E0E7D9F8E9
:1031B0000000616E20F440100843C9F80000D9E710
:1031C000386840F4003038600CE00198002107F0C6
:1031D00035F9054606E00098002107F0C1F90546DB
:1031E00000E00125A5B12E462088DFF84083C043CA
:1031F00040051FD4D4F8A400B0F5C00F18D010DCDF
:1032000050B3B0F5001F2CD0B0F5800F0FD12EE0D9
:10321000D9F80000A16D20F007000843C9F80000AC
:10322000E2E7B0F5000F03D0B0F5200F00D0012584
:103230001DB32E462088C043000531D4D4F8A80021
:10324000B0F1407F2AD022DCF0B3B0F1807F4BD0C8
:10325000B0F1007F21D14DE0386840F40030386093
:10326000E6E70198002107F0E9F80546E0E7009855
:10327000002107F075F90546DAE7D8F80000D4F820
:10328000A41020F460000843C8F80000D2E7B0F1B1
:10329000806F03D0B0F1A06F00D0012585B32E461A
:1032A0002068C04380010AD4E06C30B1102832D0CD
:1032B000202836D0302800D001258DB32E46208816
:1032C000C043C00446D400E009E0E06DB0F5005F03
:1032D0005CD036DCA0B3B0F5805F38D150E0386800
:1032E00040F400303860D9E70198002107F0A6F8D3
:1032F0000546D3E70098002107F032F90546CDE7EF
:10330000FFE7D8F80000D4F8A81020F0E0600843E8
:10331000C8F80000C4E7386840F400303860CCE7F3
:1033200005E00198022107F089F80546C5E77E48C7
:10333000001F0168E26C21F0300111430160BEE71B
:1033400019E0B0F5405F03D0B0F5804F00D0012503
:1033500015B32E462088C04380042FD4206EB0F5CC
:10336000403F29D021DC38B3B0F5803F38D0B0F5EC
:10337000003F20D13AE0386840F400303860E7E799
:103380000198002107F05AF80546E1E7009800216E
:1033900007F0E6F80546DBE7D9F80000E16D20F418
:1033A000E0400843C9F80000D4E7B0F5802F03D00F
:1033B000B0F5A02F00D00125F5B12E462088C043DE
:1033C00040042BD4D4F8AC00B0F1405F24D01CDC16
:1033D00010B3B0F1805F4FD0B0F1005F1BD152E06D
:1033E0000198012107F02AF80546E5E70098012138
:1033F00007F0B6F80546DFE7D9F80000216E20F4A3
:10340000E0200843C9F80000D8E7B0F1804F03D0AE
:10341000B0F1A04F00D00125A5B32E462088C043AF
:1034200000040AD4E06E30B1B0F1805F3DD0B0F15D
:10343000005F3FD00125B5B32E462068C043C001D0
:103440000AD4A06C30B1012843D0022846D003280A
:1034500000D0012545B32E462068C04340025AD40F
:10346000DFF8CCB0DBF8000040F48070CBF800004F
:10347000FFF7B2FB824648E00198012106F0DEFF2B
:103480000546C9E705E00098012107F069F80546FF
:10349000C2E7D8F80000D4F8AC1020F0E0400843B0
:1034A000C8F80000BAE70BE01EE0386840F40030CE
:1034B0003860C0E70198012106F0C0FF0546BAE771
:1034C000D9F80000E16E20F040500843C9F8000030
:1034D000B3E7386840F400303860BBE70198022158
:1034E00006F0ACFF0546B5E70F48001F0168A26C67
:1034F00021F0030111430160AEE7FFF76DFBA0EB84
:103500000A00642801D9032503E0DBF80000C005A8
:10351000F3D58DB12E462078DFF818A0C043C00740
:1035200063D073E02C440258504402585844025867
:103530000048025854440258DFF850B4DBF8000049
:10354000B4F8B01000F4407001F44071884211D01A
:10355000DBF8000020F44070DBF8001041F480310B
:10356000CBF80010DBF8001021F48031CBF800100C
:10357000CBF80000D4F8B000B0F5807F11D1FFF790
:103580002BFB824609E0FFF727FBA0EB0A0141F283
:103590008830814201D9032503E0DBF80000800771
:1035A000F1D50DB12E46B6E7D4F8B000C0F3012135
:1035B00003290FD0F5486038016821F47C5101607F
:1035C000DBF80000B4F8B010C1F30B010843CBF8EE
:1035D0000000A0E7ED4960390A68ED4B22F47C5207
:1035E000184042EA10100860EAE7A06F18280BD0D4
:1035F00005DC48B1082815D0102804D118E020288F
:1036000002D0282800D00125C5B12E462078C0431D
:1036100080072BD4606F062825D2DFE800F025183C
:103620001E2525250198012106F008FF0546EBE738
:103630000098012106F094FF0546E5E7DAF800005E
:10364000A16F20F038000843CAF80000DEE70198B7
:10365000012106F0F3FE054606E00098012106F080
:103660007FFF054600E001256DB12E462078C0435E
:10367000400720D4D4F89000062819D2DFE800F0E3
:10368000190C12191919DAF80000616F20F00700FF
:103690000843CAF80000E9E70198012106F0CEFED0
:1036A000054606E00098012106F05AFF054600E0B5
:1036B000012595B12E462078C043800620D4D4F849
:1036C0008C00B0F1405F19D011DCB8B1B0F1805F6F
:1036D00028D0B0F1005F10D12AE0D8F80000D4F86B
:1036E000901020F007000843C8F80000E3E7B0F1AD
:1036F000804F03D0B0F1A04F00D00125F5B12E4688
:103700002078C04340062CD4D4F89800B0F5406F20
:1037100025D01DDC18B3B0F5806F34D0B0F5006F44
:103720001CD136E00198002106F088FE0546E5E749
:103730000098022106F014FF0546DFE7DAF80000E2
:10374000D4F88C1020F0E0400843CAF80000D7E716
:10375000B0F5805F03D0B0F5A05F00D00125F5B1D2
:103760002E462078C04300062CD4D4F89C00B0F537
:10377000C04F25D01DDC18B3B0F5005F2CD0B0F5DC
:10378000804F1CD12EE00198002106F057FE05461F
:10379000E5E70098022106F0E3FE0546DFE7D8F8EA
:1037A0000000D4F8981020F4E0500843C8F8000056
:1037B000D7E7B0F5004F03D0B0F5204F00D001257A
:1037C000B5B12E462078C04300072AD4D4F8800033
:1037D000B0F5805F16D01BE00198002106F02EFEA8
:1037E0000546EDE70098022106F0BAFE0546E7E738
:1037F000D8F80000D4F89C1020F460400843C8F8C2
:103800000000DFE70098022106F0AAFE00B10126C1
:10381000DAF80000D4F8801020F440500843CAF8C9
:1038200000002078C043C00613D4D4F89400B0F54B
:10383000807F05D10098022106F092FE00B101269A
:10384000D8F80000D4F8941020F440700843C8F869
:1038500000002068C04300030BD4D4F8A000E8B3F4
:10386000B0F5803F7DD0B0F5003F00D00125B5B365
:103870002E462068C04340030DD4D4F88400B0F530
:10388000801F70D0B0F5001F6ED0B0F5401F00D083
:1038900001252DB32E462068C043C00307D4206DF8
:1038A000F0B3B0F5803F75D00125D5B32E46206822
:1038B000C043800005D40098022106F051FE00B1FB
:1038C00001262068C043800311D4E06F68B1B0F5D1
:1038D000807F76D0B0F5007F07D002E05BE066E045
:1038E0007BE0B0F5407F00D00125DDB32E46206897
:1038F000C043C00207D4D9F80000216F20F0004077
:103900000843C9F800002068C043800207D4D9F8F2
:103910000000A16E20F080700843C9F8000001E0AB
:1039200065E06FE02068C04340000AD41748603863
:10393000016821F4004101600168D4F8B42011430A
:1039400001602068C04307D4104824380168626DC4
:1039500021F04051114301602068C04300020DD4A2
:1039600003E01EE05BE02DE031E0DAF80000D4F87F
:10397000881020F440000843CAF800002079002590
:10398000C04300F00100284352D057E07044025871
:10399000FFFCFF0F30E00198002106F04FFD0546C7
:1039A00065E70098022106F0DBFD05465FE7D8F8E1
:1039B0000000D4F8A01020F440300843C8F80000FC
:1039C00057E727E0386840F40030386061E7009836
:1039D000012106F0C5FD05465BE7DAF80000D4F8E2
:1039E000841020F440100843CAF8000053E73868F8
:1039F00040F40030386058E70198022106F01EFDBF
:103A0000054652E72E480168226D21F480311143AA
:103A100001604CE7386840F40030386065E7DAF858
:103A20000000E16F20F440700843CAF800005EE730
:103A30000198002106F002FD00B106462079C0433E
:103A400000F00200284305D10198012106F0F6FCA0
:103A500000B106462079C04300F00400284305D198
:103A60000198022106F0EAFC00B106462079C04325
:103A700000F00800284305D10098002106F070FDF1
:103A800000B106462079C04300F01000284305D15C
:103A90000098012106F064FD00B106462079C0437C
:103AA00000F02000054305D10098022106F058FDE2
:103AB00000B1064616B10120BDE8FC9F0020FBE7DF
:103AC0004C4402582DE9F05F04460D46002C17D0F7
:103AD000DFF84C82D8F8000000F00F00A84211D2A5
:103AE000D8F8000020F00F002843C8F80000D8F8EC
:103AF000000000F00F00A84204D00120BDE8F09FB4
:103B00000120FBE72078874E40070AD520693168FD
:103B100001F07001884204D9316821F0700101433D
:103B200031602078804F00070AD56069396801F05C
:103B30007001884204D9396821F07001014339606D
:103B40002078C0060AD5A069396801F4E06188428E
:103B500004D9396821F4E061014339602078DFF845
:103B6000CC9180060DD5E069D9F8001001F0700104
:103B7000884206D9D9F8001021F070010143C9F834
:103B80000010207880070AD5E068316801F00F0145
:103B9000884204D9316821F00F0101433160207857
:103BA000C00743D03068A16820F4706008433060DB
:103BB0005C4960681839022808D003280BD0012816
:103BC0000ED00968490710D4012097E709688903D6
:103BD0000BD4012092E70968890106D401208DE702
:103BE0000968C90501D4012088E7DFF838A1AAF1E6
:103BF000080ADAF8001021F007010143CAF80010A2
:103C0000FEF7EAFF834609E0FEF7E6FFA0EB0B01B3
:103C100041F28830814201D903206FE7DAF80000D1
:103C2000616800F03800B0EBC10FEDD1207880075B
:103C30000AD5E068316801F00F01884204D231688A
:103C400021F00F0101433160D8F8000000F00F00AF
:103C5000A8420ED9D8F8000020F00F002843C8F879
:103C60000000D8F8000000F00F00A84201D00120A9
:103C700044E7207840070AD52069316801F07001D7
:103C8000884204D2316821F070010143316020780C
:103C900000070AD56069396801F07001884204D2D2
:103CA000396821F07001014339602078C0060AD5D7
:103CB000A069396801F4E061884204D2396821F4CE
:103CC000E06101433960207880060DD5E069D9F8BC
:103CD000001001F07001884206D2D9F8001021F0DE
:103CE00070010143C9F8001000F070F83168C1F3A9
:103CF00003220F498A5C02F01F02D040326802F0B2
:103D00000F02895C0B4A01F01F0120FA01F11160DA
:103D10000949086009480068BDE8F05FFEF798BFF0
:103D200000200052184402581C44025820440258F3
:103D3000ACB7000814000024100000240800002480
:103D400000B500F043F80B490A68C2F303230A4A9E
:103D5000D35C03F01F03D840096801F00F01515CE8
:103D6000064A01F01F0120FA01F11160044A1060B7
:103D7000084600BD18440258ACB7000814000024DF
:103D80001000002400B5FFF7DBFF05490968054A6C
:103D9000C1F30211515C01F01F01C84000BD0000D9
:103DA0001C440258ACB7000800B5FFF7C9FF05492D
:103DB0000968054AC1F30221515C01F01F01C840A6
:103DC00000BD00001C440258ACB7000830B5644880
:103DD0000068654C10F03801624808D002110829CB
:103DE0000DD010290DD018290DD0104630BD2168F6
:103DF0008906FBD52168C1F3C101C84030BD10461A
:103E000030BD5A4830BD564918310A6802F00302E5
:103E10000968C1F30511524B1C331B6803F0010301
:103E20004F4D24352D68C5F3CC0515FB03F300EE8B
:103E3000103AB8EE400A002977D0DFED4D0A484B22
:103E4000B7EE001A20333AB39FED4A2A012A58D020
:103E5000022A6CD001EE901A1868F8EE611AC2EED0
:103E6000212AC0F3080001EE900AF8EE611A40EE34
:103E7000201A31EE810A22EE800A1868C0F346202B
:103E8000401C00EE900AF8EE600A80EE201ABCEEAC
:103E9000C10A10EE100A30BD226892061BD52268B6
:103EA000C2F3C102D04001EE900A1868F8EE612A10
:103EB00001EE901AF8EE611A82EEA12AC0F3080012
:103EC00001EE900AF8EE611A40EE201A31EE810AF6
:103ED00022EE000AD1E701EE901ADFED272A1868DA
:103EE000F8EE611A82EEA12AC0F3080001EE900AF2
:103EF000F8EE611A40EE201A31EE810A22EE000A35
:103F0000BBE701EE901A1868F8EE611AC2EE212A9A
:103F1000C0F3080001EE900AF8EE611A40EE201A94
:103F200031EE810A22EE800AA7E716E0FFE701EEF4
:103F3000901ADFED122A1868F8EE611A82EEA12AB3
:103F4000C0F3080001EE900AF8EE611A40EE201A64
:103F500031EE810A22EE000A8FE7002030BD00001A
:103F6000104402580090D0030044025800366E01FD
:103F7000000000390024744A0024744C001BB74B25
:103F80002DE9F05F0446002C10D02078DFF8F8838C
:103F9000FE4EFF4DC0075DD0D8F8000000F038009D
:103FA000316810281FD0182803D006E00120BDE892
:103FB000F09F01F00300022815D06068B0F5803F43
:103FC00018D0E0B1B0F5A02F22D0286820F48030BE
:103FD0002860286820F480202860606860B3FEF7BD
:103FE000FBFD074624E02868800333D5606810BBDA
:103FF0000120DCE7286840F480302860EDE728687D
:1040000020F480302860286820F480202860E4E7CD
:10401000286840F480202860286840F480302860B8
:10402000DBE7FEF7D9FDC01B642801D90320BEE7FA
:1040300028688003F5D50DE0FEF7CEFD074606E0C3
:10404000FEF7CAFDC01B642801D90320AFE728682A
:104050008003F5D42078800764D5D8F8000000F0FC
:1040600038003168DFF8289309F1040970B1182885
:1040700001D188070AD0E068A0B3296821F01901AE
:1040800001432960FEF7A8FD07462CE02868400799
:1040900001D5E06848B12868E16820F019000843BC
:1040A0002860FEF799FD074608E001207FE7FEF74C
:1040B00093FDC01B022801D9032078E72868400738
:1040C000F5D5D9F80000217C20F0FE4040EA0160DF
:1040D000C9F8000026E0FEF77FFDC01B022802D9C8
:1040E000032064E70CE028684007F4D5D9F8000005
:1040F000217C20F0FE4040EA0160C9F8000011E098
:10410000286820F001002860FEF766FD074606E0FB
:10411000FEF762FDC01B022801D9032047E728688B
:104120004007F5D42078C00655D5D8F8000000F037
:1041300038003168DFF850920828A9F104090FD03F
:10414000182803D101F00300012809D0E06978B3F1
:10415000286840F080002860FEF73EFD074619E021
:104160002868C00504D5E069802801D001201EE739
:10417000D9F8000094F8201020F07C5040EA01604B
:10418000C9F8000027E0FEF727FDC01B022801D96F
:1041900003200CE72868C005F5D5D9F8000094F88D
:1041A000201020F07C5040EA0160C9F8000012E0C5
:1041B000FFE7286820F080002860FEF70DFD074625
:1041C00006E0FEF709FDC01B022801D90320EEE638
:1041D0002868C005F5D42078000730D5DFF8AC9109
:1041E000606909F14C09A8B1D9F8000040F001005C
:1041F000C9F80000FEF7F0FC074606E0FEF7ECFC0D
:10420000C01B022801D90320D1E6D9F8000080079D
:10421000F4D514E0D9F8000020F00100C9F800003E
:10422000FEF7DAFC074606E0FEF7D6FCC01B0228C4
:1042300001D90320BBE6D9F800008007F4D4207828
:10424000800626D5A06990B1286840F48050286087
:10425000FEF7C2FC074606E0FEF7BEFCC01B0228C4
:1042600001D90320A3E628688004F5D511E0286869
:1042700020F480502860FEF7AFFC074606E0FEF70A
:10428000ABFCC01B022801D9032090E628688004FB
:10429000F5D4207840075DD53E4F386840F48070F3
:1042A0003860FEF799FC814607E0FEF795FCA0EB2D
:1042B0000900642801D9032079E63868C005F4D5DF
:1042C000324FA0684837012812D0B0B105281DD060
:1042D000386820F001003860386820F00400386049
:1042E000A06841F2883930B3FEF776FC82461EE0C2
:1042F000386840F001003860F2E7386820F00100CB
:104300003860386820F004003860E9E7386840F029
:1043100004003860386840F001003860E0E7FEF7DC
:104320005BFCA0EB0A00484501D903203FE6386852
:104330008007F4D50EE0FEF74FFC824607E0FEF75B
:104340004BFCA0EB0A00484501D903202FE6386852
:104350008007F4D4616AB1B1D8F800004FF6F87B59
:10436000DFF828A00AF1080AC0F3C20003280AF106
:104370000409AAF104087CD0022911D0286820F091
:104380008070286008E0E5E0104402582844025894
:104390000044025800480258FEF71EFC044689E01B
:1043A000286820F080702860FEF716FC074606E0BB
:1043B000FEF712FCC01B022801D90320F7E528688C
:1043C0008001F5D4306840F2F3318843E16A40EA75
:1043D0000110A16A08433060208E4FF6FF72616BB6
:1043E000401E491EC0F3080002EA41210843218F04
:1043F0004FF4FE02491E02EA0141084394F83C10C2
:10440000491E120202EA01610843CAF80000D8F806
:10441000000020F00100C8F80000D9F80000A16CED
:1044200020EA0B0040EAC100C9F80000D8F80000FB
:10443000216C20F00C000843C8F80000D8F80000F8
:10444000616C20F002000843C8F80000D8F80000B2
:1044500040F48030C8F80000D8F8000040F4003084
:10446000C8F80000D8F8000040F48020C8F8000028
:1044700000E023E0D8F8000040F00100C8F8000098
:10448000286840F080702860FEF7A6FB044606E02E
:10449000FEF7A2FB001B022801D9032087E528684C
:1044A0008001F5D556E0FEF797FB001B022801D9E5
:1044B00003207CE528688001F5D44BE03268DAF807
:1044C0000000012921D0A36A02F0030199421CD106
:1044D000E16AC2F30512914217D1216BC0F30802C1
:1044E000491E8A4211D1616BC0F34622491E914296
:1044F0000BD1A16BC0F30642491E914205D1E16B7D
:10450000C0F30660491E814201D001204FE5D9F871
:104510000000C0F3CC00A16C81421BD0D8F8000091
:1045200020F00100C8F80000FEF756FB0546FEF734
:1045300053FBA842FBD0D9F80000A16C20EA0B0085
:1045400040EAC100C9F80000D8F8000040F00100BE
:10455000C8F8000000202AE510B5401EB0F1807FA9
:1045600001D3012010BD4FF0E02460610F216017DE
:1045700005F054FF0020A06107202061002010BD3D
:104580007047704770470000F0B590F83C20012A52
:1045900040D0012680F83C60022280F83D2003686C
:1045A0005A689C681C4FDFF874C0BB4201D0634559
:1045B00003D122F470054A682A4322F070050A6884
:1045C0002A435A600268BA4219D0B2F1804F16D01D
:1045D000134B9A4213D0134B9A4210D0124B9A426B
:1045E0000DD062450BD0114B9A4208D0104B9A4225
:1045F00005D0104B9A4202D00F4B9A4204D124F0BE
:1046000080038968194391603C3046700021017035
:104610000020F0BD0220F0BD000001400004014078
:104620000004004000080040000C0040001800405A
:104630000040014000E0004000E4004010B50446A6
:10464000002C03D094F83D0010B107E0012010BD0C
:10465000002084F83C00204600F018F8022084F87E
:104660003D002068211D01F085FC01203D34E072F1
:104670006070A070E07020716071A071E0712072B4
:104680006072A0722070002010BD000008B50068A4
:10469000154A1649904211D1086840F0040008609C
:1046A000086800F00400009000221E201146FEF76A
:1046B00011FBBDE808401E20FEF7FEBA0C4A9042EE
:1046C00011D1086840F008000860086800F0080090
:1046D0000090002232201146FEF7FCFABDE80840A7
:1046E0003220FEF7E9BA08BD00080040E84402584D
:1046F000000C004090F83D10012901D001207047C6
:10470000022180F83D100168CA6842F00102CA60C7
:104710000068184988421AD0B0F1804F17D0164966
:10472000884214D01549884211D0154988420ED0CC
:10473000144988420BD01449884208D01349884252
:1047400005D01349884202D0124988420CD18168B1
:10475000114A114006290BD0B1F5803F08D00168FD
:1047600041F00101016003E0016841F001010160D5
:104770000020704700000140000400400008004095
:10478000000C0040000401400018004000400140BF
:1047900000E0004000E400400700010070B504465E
:1047A000002594F83C00012815D0012684F83C60CF
:1047B000022084F83D0020688268394B1A4022F4B8
:1047C0007F4282600868702802462ED010DC10F00C
:1047D0000F0F03D022E04FF0020070BD4FEA20100F
:1047E00007281BD2DFE800F0575757574D394300D1
:1047F000B0F1101F4FD009DCB0F5805F0FD0B0F5DD
:10480000005F1ED0B0F5801F08D144E0A0F58010F5
:10481000203840D010283ED020283CD001253C3400
:10482000667000202070284670BDCB682068D1E9F2
:10483000012101F01EFC2068816841F07701816050
:10484000EDE7CB682068D1E9012101F012FC206876
:10485000816841F480418160E1E7CA684968206865
:1048600005F0CEFB2068502105F0C0FBD7E7CA68F1
:104870004968206805F0D5FB2068602105F0B6FB8B
:10488000CDE7CA684968206805F0BAFB2068402176
:1048900005F0ACFBC3E72068114605F0A7FBBEE7B7
:1048A00088FFCEFF70472DE9F04104462068C668B6
:1048B00005694FF00007A90714D5B10712D5F91EF5
:1048C00001610120207720688069800703D020469D
:1048D000FFF7E8FF05E0204600F0CCF8204600F0A6
:1048E000AFF92777680717D5700715D521686FF0DE
:1048F00004000861022020772068806910F4407F5E
:1049000003D02046FFF7CEFF05E0204600F0B2F8C6
:10491000204600F095F92777280716D5300714D5DB
:1049200021686FF008000861042020772068C069C2
:10493000800703D02046FFF7B5FF05E0204600F0D2
:1049400099F8204600F07CF92777E80617D5F0069D
:1049500015D521686FF010000861082020772068C5
:10496000C06910F4407F03D02046FFF79BFF05E0AD
:10497000204600F07FF8204600F062F92777E8072C
:1049800008D0F00706D021686FF0010008612046CA
:1049900000F0F6F9280601D4A80408D5300606D59B
:1049A00021686FF4025008612046FFF7EAFDE80530
:1049B00008D5300606D521686FF48070086120465E
:1049C000FFF7DEFD680608D5700606D521686FF092
:1049D00040000861204600F08BFAA8060AD5B00610
:1049E00008D521686FF0200008612046BDE8F0413D
:1049F000FFF7C8BDBDE8F08130B587B0044614218B
:104A000002A8FBF7E3FD174D022221680024164B94
:104A10001648A94211D1196841F0020119601968BC
:104A200001F002010191029203920494059406920E
:104A300002A9FDF7B9FF07B030BD0D4DA942FAD16B
:104A4000196841F002011960196801F00201019131
:104A5000E9130291039204940594069202A9FDF7CA
:104A6000A3FFE8E700040040E044025800040258B5
:104A700000180040704770B504460D46002694F8B3
:104A80003C0001280BD0012084F83C000C2A4FD0B8
:104A900007DC82B1042A22D0082A06D134E00220A1
:104AA00070BD102A59D0142A6BD00126002084F83A
:104AB0003C00304670BD2068294605F053F9206857
:104AC000816941F0080181612068816921F0040158
:104AD0008161206881692A6911438161E6E7206864
:104AE000294601F0D1FA2068816941F400618161B1
:104AF0002068816921F480618161206881692A6967
:104B000041EA02218161D1E72068294605F07AF95E
:104B10002068C16941F00801C1612068C16921F0C4
:104B20000401C1612068C1692A691143C161BDE7FF
:104B30002068294605F0B0F92068C16941F4006198
:104B4000C1612068C16921F48061C1612068C169C7
:104B50002A6941EA0221C161A8E72068294605F0D7
:104B6000D5F92068416D41F0080141652068416D2B
:104B700021F0040141652068416D2A6911434165B6
:104B800094E72068294605F0F9F92068416D41F461
:104B9000006141652068416D21F4806141652068B4
:104BA000416D2A6941EA022141657FE710B504465B
:104BB000002C03D094F83D0010B107E0012010BD97
:104BC000002084F83C00204600F018F8022084F809
:104BD0003D002068211D01F0CDF901203D34E07237
:104BE0006070A070E07020716071A071E07120723F
:104BF0006072A0722070002010BD000008B500682F
:104C00000C4A0D49904208D1086840F00200086043
:104C1000086800F00200009008BD084A9042FBD1ED
:104C2000086840F040000860086800F0400000900C
:104C300008BD000000040040E8440258001800408D
:104C40007047000030B5044600290DD004290ED06D
:104C500008290FD00C2910D0102911D094F8430046
:104C6000012810D0012030BD94F83E00F8E794F8F8
:104C70003F00F5E794F84000F2E794F84100EFE7D1
:104C800094F84200ECE70220F1B304294DD0082942
:104C90004ED00C294FD0102950D084F84300012267
:104CA000206801F0D9F92A4A20682A4B2A49904203
:104CB00009D0984207D0884205D0284DA84202D09A
:104CC000274DA84203D1456C45F400454564206852
:104CD000904218D0B0F1804F15D0224A904212D0A5
:104CE000214A90420FD0214A90420CD098420AD0DB
:104CF0001F4A904207D0884205D01E49884202D000
:104D00001D4988421DD100E00CE081681B4A11401A
:104D100006291AD0B1F5803F17D0016841F0010192
:104D2000016012E084F83E00B9E784F83F00B6E77E
:104D300084F84000B3E784F84100B0E784F842000B
:104D4000ADE7016841F001010160002030BD0000C5
:104D500000000140000401400040014000440140C7
:104D6000004801400004004000080040000C0040E2
:104D70000018004000E0004000E40040070001008F
:104D80004A490978002974D000684949884204D109
:104D90004848406800286CD00047B0F1804F08D0E8
:104DA000454988420BD143481030406800287CD0E8
:104DB0000047404808304068002876D000473F4907
:104DC000884205D13B481830406800286DD0004724
:104DD0003B49884205D1374820304068002864D0DC
:104DE00000473849884205D13248283040680028B9
:104DF0005BD000473449884205D12E4830304068A6
:104E0000002852D000473149884205D1294838301E
:104E10004068002849D000472D49884205D12548DF
:104E200040304068002840D000472A49884205D1D8
:104E3000204848304068002837D00047264988423B
:104E400005D11C485030406800282ED00047234927
:104E5000884205D1174858304068002825D00047BF
:104E60001F49884206D113486030406800281CD092
:104E700000471AE01B49884205D10E486830406857
:104E8000002812D000471849884205D109487030DF
:104E90004068002809D000471449884205D10548D8
:104EA00078304068002800D000477047080200248E
:104EB00000000140180000240004004000080040E9
:104EC000000C0040001000400014004000040140AD
:104ED00000180040001C004000200040004001403D
:104EE000004401400048014000E0004000E4004070
:104EF000704790F88410012918D0012180F884109F
:104F00002421C0F8881001680A680B6823F00103A7
:104F10000B6022F0005100224266036819602021D4
:104F2000C0F8881080F88420002070470220704765
:104F300010B50446D4F88C00202801D0022010BD02
:104F400051B14AB10120E06600202067204601F0FF
:104F5000F3FC014611B105E0012010BDE06E01280F
:104F600002D00121084610BD22681020106220687E
:104F700050E8002F42F0100240E80023002BF6D149
:104F8000F0E7000070B504465F4A206890420FD1F8
:104F90005E4E06F58275D6F808220AB1284690477B
:104FA000B6F8042229462046BDE87040FFF7C0BF8E
:104FB000574A90420FD1574E06F58275D6F808220F
:104FC0000AB128469047B6F8042229462046BDE893
:104FD0007040FFF7ADBF504A90420FD14F4E06F5DB
:104FE0008275D6F808220AB128469047B6F80422FE
:104FF00029462046BDE87040FFF79ABF484A9042D4
:105000000FD1484E06F58275D6F808220AB1284617
:105010009047B6F8042229462046BDE87040FFF7C5
:1050200087BF414A90420FD1404E06F58275D6F8AF
:1050300008220AB128469047B6F80422294620469D
:10504000BDE87040FFF774BF394A90420FD1394E26
:1050500006F58275D6F808220AB128469047B6F8B8
:10506000042229462046BDE87040FFF761BF324A5E
:1050700090420FD1314E06F58275D6F808220AB15A
:1050800028469047B6F8042229462046BDE87040DD
:10509000FFF74EBF2A4A90420FD12A4E06F582757D
:1050A000D6F808220AB128469047B6F804222946C5
:1050B0002046BDE87040FFF73BBF234A90420FD126
:1050C000224E06F58275D6F808220AB12846904786
:1050D000B6F8042229462046BDE87040FFF728BFF5
:1050E0001B4A90420FD11B4E06F58275D6F8082256
:1050F0000AB128469047B6F8042229462046BDE862
:105100007040FFF715BF70BD00100140F809002482
:1051100000440040040C002400480040100E00240D
:10512000004C00401C1000240050004028120024B5
:10513000001401403414002400780040401600247C
:10514000007C00404C18002400180140581A00242C
:10515000001C0140641C0024704770B5044694F89C
:10516000840001281DD0012084F884002420C4F884
:10517000880020680568026822F001020260206849
:10518000826822F060620A438260204605F07AFA63
:10519000206805602020C4F88800002084F884007E
:1051A00070BD022070BD70B5044694F884000128DB
:1051B0001DD0012084F884002420C4F888002068D1
:1051C0000568026822F0010202602068826822F00D
:1051D00060420A438260204605F054FA2068056068
:1051E0002020C4F88800002084F8840070BD0220CC
:1051F00070BD7047704770472DE9F0410446236841
:10520000D86919689A6840F60F0500EA0507002F6B
:105210000ED185060CD501F0200502F080563543ED
:1052200006D0616F00297DD02046BDE8F0410847D7
:1052300000250226002F76D0CF4FDFF840C317405D
:1052400001EA0C0C57EA0C0C6DD05FEAC07C0CD064
:105250005FEAC15C09D54FF0010CC3F820C0D4F857
:10526000903043F00103C4F89030830709D5D30789
:1052700007D023681E62D4F8903043F00403C4F8CA
:10528000903043070AD5D30708D026680423336239
:10529000D4F8903043F00203C4F8903003070CD5E3
:1052A00001F020033B4308D0266808233362D4F87A
:1052B000903043F00803C4F8903003050BD54B0140
:1052C00009D526684FF400633362D4F8903043F078
:1052D0002003C4F89030D4F89030002B3CD08006E6
:1052E00009D501F0200002F08051084303D0616F1E
:1052F00009B120468847D4F890002168896849069A
:1053000002D410F0280F2DD0204604F0D5FE2068DE
:105310008068400622D52068083050E8001F21F040
:10532000400101E018E023E040E80012002AF2D139
:10533000D4F8800068B192490165D4F88000FBF789
:1053400059FC002808D0D4F88000016DBDE8F04178
:1053500008472046FFF74FFFBDE8F0812046FFF7E2
:105360004AFFF9E72046FFF746FFC4F89050F3E7FD
:10537000E76E012F7ED1C7067CD5CF067AD51020E7
:105380001862206880684FF02003400673D5D4F877
:1053900080107C4A086890423AD07A4A183290428B
:1053A00036D0784A3032904232D0764A48329042F3
:1053B0002ED0744A603290422AD0724A783290429B
:1053C00026D0704A9032904222D06E4AA832904243
:1053D0001ED06D4A90421BD06B4A1832904217D0B3
:1053E000694A3032904213D0674A483290420FD017
:1053F000654A603290420BD0634A7832904207D0BF
:10540000614A9032904203D05F4AA832904201D163
:10541000406800E0406880B200289DD0B4F85C206D
:10542000824299D9A4F85E00C869B0F5807F2FD078
:10543000206850E8001F21F4807140E80012002A23
:10544000F6D12068083050E8001F21F0010140E843
:105450000012002AF5D12068083050E8001F21F022
:10546000400140E80012002AF5D1C4F88C30E5660E
:10547000206801E049E016E050E8001F21F010012B
:1054800040E80012002AF3D1D4F88000FBF7F4F9C9
:105490002667B4F85C00B4F85E10401A81B220466A
:1054A000FFF770FD58E734F85C0F6188401A81B24D
:1054B00060885C3C0028F5D00029F3D0206850E8D3
:1054C000002F22F4907240E80027002FF6D12A4FD7
:1054D000FF432068083050E8002F3A4040E8002C95
:1054E000BCF1000FF5D1C4F88C30E5666567206823
:1054F00050E8002F22F0100240E80023002BF6D1E4
:1055000026672046FFF73EFD26E7C50209D555026E
:1055100007D54FF4801018622046BDE8F041FFF730
:1055200069BE03060CD501F0800302F400021343A8
:1055300006D0A16F0029B5D02046BDE8F04108474C
:10554000420606D54A0604D52046BDE8F04104F0DF
:1055500036BE020206D54A0004D52046BDE8F04119
:10556000FFF747BEC0019DD500299BDA2046BDE864
:10557000F041FFF7F1BD0000010000102001000420
:10558000E3A10008100002401004024010B50446D8
:10559000002C03D0D4F8880010B107E0012010BD22
:1055A000002084F88400204600F028F82420C4F865
:1055B00088002068016821F001010160A06A10B133
:1055C000204600F067FE204600F01EFF012813D0A1
:1055D0002068416821F4904141602068816821F091
:1055E0002A0181602068016841F0010101602046C4
:1055F000BDE8104000F0B2BE012010BD2DE9F04F13
:10560000B5B00446142130A8FAF7E0FFB82102A88B
:10561000FAF7DCFFA549002520684FF00208A44EE8
:105620004FF004090F154FF0080A884262D1022199
:105630000020CDE902101F9502A8FDF77BFD08B1FF
:10564000FBF70CF99A480830016841F480110160B9
:10565000006800F480100190306840F00200306073
:10566000306800F002000190306840F008003060BF
:10567000306800F0080001904FF400503090CDF8F1
:10568000C480329533950E20349030A98948FDF7B7
:105690008BF9CDF8C090CDF8C48032953395CDF814
:1056A000D0A030A98448FDF77FF9854E834830604B
:1056B00041207060B560F56037617561B5614FF488
:1056C0008070F0614FF44030306275623046FBF715
:1056D000BDFF08B1FBF7C2F8C4F88060B4630022D4
:1056E00035201146FDF7F6FA3520FDF7E5FA35B01D
:1056F000BDE8F08F7349DFF8B8B188420BF1100BA9
:1057000062D101210020CDE90210209502A8FDF709
:1057100011FD08B1FBF7A2F8DBF8000040F0100023
:10572000CBF80000DBF8000000F0100001903068BA
:1057300040F001003060306800F0010001904FF44B
:10574000C0603090CDF8C4803295339507203490F6
:1057500030A95D48FDF728F9594E5C48783630602D
:1057600029207060B560F56037617561B561F561DC
:10577000356275623046FBF769FF08B1FBF76EF8DA
:10578000C4F88060B46351484D4E1830F036306034
:105790002A2070604020B060F56037617561B561A6
:1057A000F561356275623046FBF750FF08B1FBF7D3
:1057B00055F8E667B463002225201146FDF78AFA02
:1057C0002520FDF779FA92E7414988428FD10120DF
:1057D0000021CDE90201209502A8FDF7ABFC08B13C
:1057E000FBF73CF8DBF8000040F08000CBF800004D
:1057F000DBF8000000F080000190306840F01000FD
:105800003060306800F010000190CDF8C090CDF805
:10581000C48032953395CDF8D09030A92D4E3046C6
:10582000FDF7C2F8CDF8C0A0CDF8C480329533950D
:105830000B20349030A93046FDF7B6F8264E2348A9
:105840003030306076207060B560F560376175612A
:10585000B561F561356275623046FBF7F7FE08B158
:10586000FAF7FCFFC4F88060B46318481A4E483059
:1058700078363060772070604020B060F560376126
:105880007561B561F561356275623046FBF7DEFE24
:1058900008B1FAF7E3FFE667B46300229C201146E3
:1058A000FDF718FA9C20FDF707FA20E700500040AA
:1058B000E044025800040258000C02581004024050
:1058C000F8060024001001400000025828000240A1
:1058D000001C014000100258600800247047704707
:1058E0007047FEE708B51D48016841F001010160FD
:1058F000016801F001010091016841F002010160BD
:10590000006800F00200009000220C201146FDF714
:10591000E1F90C20FDF7D0F900220D201146FDF72A
:10592000D9F90D20FDF7C8F900220E201146FDF728
:10593000D1F90E20FDF7C0F900220F201146FDF726
:10594000C9F90F20FDF7B8F9002238201146FDF7FC
:10595000C1F9BDE808403820FDF7AEB9D844025877
:1059600010B519481749016000218160C16001220A
:10597000027441748274032343610A2282611D24EC
:10598000C461026243628262C462026340F2A46242
:10599000426383630422C263082303644264836412
:1059A000C264016542658165C16520230366416665
:1059B0008266FCF7DDFC002803D0BDE81040FAF752
:1059C0004DBF10BD00A000402C02002410B51948A6
:1059D0001749016000218160C16001220274417495
:1059E0008274032343610A2282611D24C46102621E
:1059F00043628262C462026340F2A46242638363D0
:105A00000422C2630823036442648364C2640165A0
:105A100042658165C1652023036641668266FCF7A5
:105A2000A7FC002803D0BDE81040FAF717BF10BD4F
:105A300000A40040CC02002410B5194817490160A9
:105A400000218160C16001220274417482740323C9
:105A500043610A2282611D24C46102624362826240
:105A6000C462026340F2A462426383630422C2639D
:105A70000823036442648364C264016542658165EE
:105A8000C1652023036641668266FCF771FC00282D
:105A900003D0BDE81040FAF7E1BE10BD00D40040CD
:105AA0006C030024F0B587B0142102A8FAF78EFD2C
:105AB0003748016841F010010160016801F01001F0
:105AC0000191016841F004010160016801F00401E5
:105AD0000191016841F080010160016801F08001DD
